{
    "_format": "hh-sol-artifact-1",
    "contractName": "Domains",
    "sourceName": "contracts/Domains.sol",
    "abi": [
        {
            "inputs": [
                {
                    "internalType": "string",
                    "name": "_tld",
                    "type": "string"
                }
            ],
            "stateMutability": "payable",
            "type": "constructor"
        },
        {
            "inputs": [],
            "name": "AlreadyRegistered",
            "type": "error"
        },
        {
            "inputs": [
                {
                    "internalType": "string",
                    "name": "name",
                    "type": "string"
                }
            ],
            "name": "InvalidName",
            "type": "error"
        },
        {
            "inputs": [],
            "name": "Unauthorized",
            "type": "error"
        },
        {
            "anonymous": false,
            "inputs": [
                {
                    "indexed": true,
                    "internalType": "address",
                    "name": "owner",
                    "type": "address"
                },
                {
                    "indexed": true,
                    "internalType": "address",
                    "name": "approved",
                    "type": "address"
                },
                {
                    "indexed": true,
                    "internalType": "uint256",
                    "name": "tokenId",
                    "type": "uint256"
                }
            ],
            "name": "Approval",
            "type": "event"
        },
        {
            "anonymous": false,
            "inputs": [
                {
                    "indexed": true,
                    "internalType": "address",
                    "name": "owner",
                    "type": "address"
                },
                {
                    "indexed": true,
                    "internalType": "address",
                    "name": "operator",
                    "type": "address"
                },
                {
                    "indexed": false,
                    "internalType": "bool",
                    "name": "approved",
                    "type": "bool"
                }
            ],
            "name": "ApprovalForAll",
            "type": "event"
        },
        {
            "anonymous": false,
            "inputs": [
                {
                    "indexed": true,
                    "internalType": "address",
                    "name": "from",
                    "type": "address"
                },
                {
                    "indexed": true,
                    "internalType": "address",
                    "name": "to",
                    "type": "address"
                },
                {
                    "indexed": true,
                    "internalType": "uint256",
                    "name": "tokenId",
                    "type": "uint256"
                }
            ],
            "name": "Transfer",
            "type": "event"
        },
        {
            "inputs": [
                {
                    "internalType": "address",
                    "name": "to",
                    "type": "address"
                },
                {
                    "internalType": "uint256",
                    "name": "tokenId",
                    "type": "uint256"
                }
            ],
            "name": "approve",
            "outputs": [],
            "stateMutability": "nonpayable",
            "type": "function"
        },
        {
            "inputs": [
                {
                    "internalType": "address",
                    "name": "owner",
                    "type": "address"
                }
            ],
            "name": "balanceOf",
            "outputs": [
                {
                    "internalType": "uint256",
                    "name": "",
                    "type": "uint256"
                }
            ],
            "stateMutability": "view",
            "type": "function"
        },
        {
            "inputs": [
                {
                    "internalType": "string",
                    "name": "",
                    "type": "string"
                }
            ],
            "name": "domains",
            "outputs": [
                {
                    "internalType": "address",
                    "name": "",
                    "type": "address"
                }
            ],
            "stateMutability": "view",
            "type": "function"
        },
        {
            "inputs": [
                {
                    "internalType": "string",
                    "name": "name",
                    "type": "string"
                }
            ],
            "name": "getAddress",
            "outputs": [
                {
                    "internalType": "address",
                    "name": "",
                    "type": "address"
                }
            ],
            "stateMutability": "view",
            "type": "function"
        },
        {
            "inputs": [],
            "name": "getAllNames",
            "outputs": [
                {
                    "internalType": "string[]",
                    "name": "",
                    "type": "string[]"
                }
            ],
            "stateMutability": "view",
            "type": "function"
        },
        {
            "inputs": [
                {
                    "internalType": "uint256",
                    "name": "tokenId",
                    "type": "uint256"
                }
            ],
            "name": "getApproved",
            "outputs": [
                {
                    "internalType": "address",
                    "name": "",
                    "type": "address"
                }
            ],
            "stateMutability": "view",
            "type": "function"
        },
        {
            "inputs": [
                {
                    "internalType": "string",
                    "name": "name",
                    "type": "string"
                }
            ],
            "name": "getRecord",
            "outputs": [
                {
                    "internalType": "string",
                    "name": "",
                    "type": "string"
                }
            ],
            "stateMutability": "view",
            "type": "function"
        },
        {
            "inputs": [
                {
                    "internalType": "address",
                    "name": "owner",
                    "type": "address"
                },
                {
                    "internalType": "address",
                    "name": "operator",
                    "type": "address"
                }
            ],
            "name": "isApprovedForAll",
            "outputs": [
                {
                    "internalType": "bool",
                    "name": "",
                    "type": "bool"
                }
            ],
            "stateMutability": "view",
            "type": "function"
        },
        {
            "inputs": [],
            "name": "isOwner",
            "outputs": [
                {
                    "internalType": "bool",
                    "name": "",
                    "type": "bool"
                }
            ],
            "stateMutability": "view",
            "type": "function"
        },
        {
            "inputs": [],
            "name": "name",
            "outputs": [
                {
                    "internalType": "string",
                    "name": "",
                    "type": "string"
                }
            ],
            "stateMutability": "view",
            "type": "function"
        },
        {
            "inputs": [
                {
                    "internalType": "uint256",
                    "name": "",
                    "type": "uint256"
                }
            ],
            "name": "names",
            "outputs": [
                {
                    "internalType": "string",
                    "name": "",
                    "type": "string"
                }
            ],
            "stateMutability": "view",
            "type": "function"
        },
        {
            "inputs": [],
            "name": "owner",
            "outputs": [
                {
                    "internalType": "address payable",
                    "name": "",
                    "type": "address"
                }
            ],
            "stateMutability": "view",
            "type": "function"
        },
        {
            "inputs": [
                {
                    "internalType": "uint256",
                    "name": "tokenId",
                    "type": "uint256"
                }
            ],
            "name": "ownerOf",
            "outputs": [
                {
                    "internalType": "address",
                    "name": "",
                    "type": "address"
                }
            ],
            "stateMutability": "view",
            "type": "function"
        },
        {
            "inputs": [
                {
                    "internalType": "string",
                    "name": "name",
                    "type": "string"
                }
            ],
            "name": "price",
            "outputs": [
                {
                    "internalType": "uint256",
                    "name": "",
                    "type": "uint256"
                }
            ],
            "stateMutability": "pure",
            "type": "function"
        },
        {
            "inputs": [
                {
                    "internalType": "string",
                    "name": "",
                    "type": "string"
                }
            ],
            "name": "records",
            "outputs": [
                {
                    "internalType": "string",
                    "name": "",
                    "type": "string"
                }
            ],
            "stateMutability": "view",
            "type": "function"
        },
        {
            "inputs": [
                {
                    "internalType": "string",
                    "name": "name",
                    "type": "string"
                }
            ],
            "name": "register",
            "outputs": [],
            "stateMutability": "payable",
            "type": "function"
        },
        {
            "inputs": [
                {
                    "internalType": "address",
                    "name": "from",
                    "type": "address"
                },
                {
                    "internalType": "address",
                    "name": "to",
                    "type": "address"
                },
                {
                    "internalType": "uint256",
                    "name": "tokenId",
                    "type": "uint256"
                }
            ],
            "name": "safeTransferFrom",
            "outputs": [],
            "stateMutability": "nonpayable",
            "type": "function"
        },
        {
            "inputs": [
                {
                    "internalType": "address",
                    "name": "from",
                    "type": "address"
                },
                {
                    "internalType": "address",
                    "name": "to",
                    "type": "address"
                },
                {
                    "internalType": "uint256",
                    "name": "tokenId",
                    "type": "uint256"
                },
                {
                    "internalType": "bytes",
                    "name": "data",
                    "type": "bytes"
                }
            ],
            "name": "safeTransferFrom",
            "outputs": [],
            "stateMutability": "nonpayable",
            "type": "function"
        },
        {
            "inputs": [
                {
                    "internalType": "address",
                    "name": "operator",
                    "type": "address"
                },
                {
                    "internalType": "bool",
                    "name": "approved",
                    "type": "bool"
                }
            ],
            "name": "setApprovalForAll",
            "outputs": [],
            "stateMutability": "nonpayable",
            "type": "function"
        },
        {
            "inputs": [
                {
                    "internalType": "string",
                    "name": "name",
                    "type": "string"
                },
                {
                    "internalType": "string",
                    "name": "record",
                    "type": "string"
                }
            ],
            "name": "setRecord",
            "outputs": [],
            "stateMutability": "nonpayable",
            "type": "function"
        },
        {
            "inputs": [
                {
                    "internalType": "bytes4",
                    "name": "interfaceId",
                    "type": "bytes4"
                }
            ],
            "name": "supportsInterface",
            "outputs": [
                {
                    "internalType": "bool",
                    "name": "",
                    "type": "bool"
                }
            ],
            "stateMutability": "view",
            "type": "function"
        },
        {
            "inputs": [],
            "name": "symbol",
            "outputs": [
                {
                    "internalType": "string",
                    "name": "",
                    "type": "string"
                }
            ],
            "stateMutability": "view",
            "type": "function"
        },
        {
            "inputs": [],
            "name": "tld",
            "outputs": [
                {
                    "internalType": "string",
                    "name": "",
                    "type": "string"
                }
            ],
            "stateMutability": "view",
            "type": "function"
        },
        {
            "inputs": [
                {
                    "internalType": "uint256",
                    "name": "tokenId",
                    "type": "uint256"
                }
            ],
            "name": "tokenURI",
            "outputs": [
                {
                    "internalType": "string",
                    "name": "",
                    "type": "string"
                }
            ],
            "stateMutability": "view",
            "type": "function"
        },
        {
            "inputs": [
                {
                    "internalType": "address",
                    "name": "from",
                    "type": "address"
                },
                {
                    "internalType": "address",
                    "name": "to",
                    "type": "address"
                },
                {
                    "internalType": "uint256",
                    "name": "tokenId",
                    "type": "uint256"
                }
            ],
            "name": "transferFrom",
            "outputs": [],
            "stateMutability": "nonpayable",
            "type": "function"
        },
        {
            "inputs": [
                {
                    "internalType": "string",
                    "name": "name",
                    "type": "string"
                }
            ],
            "name": "valid",
            "outputs": [
                {
                    "internalType": "bool",
                    "name": "",
                    "type": "bool"
                }
            ],
            "stateMutability": "pure",
            "type": "function"
        },
        {
            "inputs": [],
            "name": "withdraw",
            "outputs": [],
            "stateMutability": "nonpayable",
            "type": "function"
        }
    ],
    "bytecode": "0x6080604052604051806108e001604052806108a481526020016200539f6108a49139600a908051906020019062000038929190620002ac565b506040518060400160405280600d81526020017f3c2f746578743e3c2f7376673e00000000000000000000000000000000000000815250600b908051906020019062000086929190620002ac565b5060405162005c6538038062005c658339818101604052810190620000ac9190620004f9565b6040518060400160405280600f81526020017f4565204e616d65205365727669636500000000000000000000000000000000008152506040518060400160405280600381526020017f454e530000000000000000000000000000000000000000000000000000000000815250816000908051906020019062000130929190620002ac565b50806001908051906020019062000149929190620002ac565b50505033600860006101000a81548173ffffffffffffffffffffffffffffffffffffffff021916908373ffffffffffffffffffffffffffffffffffffffff1602179055508060099080519060200190620001a5929190620002ac565b50620001d660405180606001604052806022815260200162005c436022913982620001dd60201b62001b661760201c565b5062000647565b6200027f8282604051602401620001f6929190620005a7565b6040516020818303038152906040527f4b5c4277000000000000000000000000000000000000000000000000000000007bffffffffffffffffffffffffffffffffffffffffffffffffffffffff19166020820180517bffffffffffffffffffffffffffffffffffffffffffffffffffffffff83818316178352505050506200028360201b60201c565b5050565b60008151905060006a636f6e736f6c652e6c6f679050602083016000808483855afa5050505050565b828054620002ba9062000611565b90600052602060002090601f016020900481019282620002de57600085556200032a565b82601f10620002f957805160ff19168380011785556200032a565b828001600101855582156200032a579182015b82811115620003295782518255916020019190600101906200030c565b5b5090506200033991906200033d565b5090565b5b80821115620003585760008160009055506001016200033e565b5090565b6000604051905090565b600080fd5b600080fd5b600080fd5b600080fd5b6000601f19601f8301169050919050565b7f4e487b7100000000000000000000000000000000000000000000000000000000600052604160045260246000fd5b620003c5826200037a565b810181811067ffffffffffffffff82111715620003e757620003e66200038b565b5b80604052505050565b6000620003fc6200035c565b90506200040a8282620003ba565b919050565b600067ffffffffffffffff8211156200042d576200042c6200038b565b5b62000438826200037a565b9050602081019050919050565b60005b838110156200046557808201518184015260208101905062000448565b8381111562000475576000848401525b50505050565b6000620004926200048c846200040f565b620003f0565b905082815260208101848484011115620004b157620004b062000375565b5b620004be84828562000445565b509392505050565b600082601f830112620004de57620004dd62000370565b5b8151620004f08482602086016200047b565b91505092915050565b60006020828403121562000512576200051162000366565b5b600082015167ffffffffffffffff8111156200053357620005326200036b565b5b6200054184828501620004c6565b91505092915050565b600081519050919050565b600082825260208201905092915050565b600062000573826200054a565b6200057f818562000555565b93506200059181856020860162000445565b6200059c816200037a565b840191505092915050565b60006040820190508181036000830152620005c3818562000566565b90508181036020830152620005d9818462000566565b90509392505050565b7f4e487b7100000000000000000000000000000000000000000000000000000000600052602260045260246000fd5b600060028204905060018216806200062a57607f821691505b60208210811415620006415762000640620005e2565b5b50919050565b614d4880620006576000396000f3fe60806040526004361061019c5760003560e01c806370a08231116100ec578063bf40fac11161008a578063e985e9c511610064578063e985e9c514610624578063f2c298be14610661578063fb825e5f1461067d578063fe2c6198146106a85761019c565b8063bf40fac114610581578063c1880a98146105be578063c87b56dd146105e75761019c565b806395d89b41116100c657806395d89b41146104c75780639791c097146104f2578063a22cb4651461052f578063b88d4fde146105585761019c565b806370a08231146104345780638da5cb5b146104715780638f32d59b1461049c5761019c565b8063264492351161015957806342842e0e1161013357806342842e0e146103545780634622ab031461037d578063541e771d146103ba5780636352211e146103f75761019c565b806326449235146102d55780632d551432146103125780633ccfd60b1461033d5761019c565b806301ffc9a7146101a157806306fdde03146101de578063081812fc14610209578063095ea7b31461024657806311dd88451461026f57806323b872dd146102ac575b600080fd5b3480156101ad57600080fd5b506101c860048036038101906101c3919061334b565b6106e5565b6040516101d59190613393565b60405180910390f35b3480156101ea57600080fd5b506101f36107c7565b6040516102009190613447565b60405180910390f35b34801561021557600080fd5b50610230600480360381019061022b919061349f565b610859565b60405161023d919061350d565b60405180910390f35b34801561025257600080fd5b5061026d60048036038101906102689190613554565b61089f565b005b34801561027b57600080fd5b50610296600480360381019061029191906135f9565b6109b7565b6040516102a39190613447565b60405180910390f35b3480156102b857600080fd5b506102d360048036038101906102ce9190613646565b610a6a565b005b3480156102e157600080fd5b506102fc60048036038101906102f791906137c9565b610aca565b604051610309919061350d565b60405180910390f35b34801561031e57600080fd5b50610327610b13565b6040516103349190613447565b60405180910390f35b34801561034957600080fd5b50610352610ba1565b005b34801561036057600080fd5b5061037b60048036038101906103769190613646565b610c67565b005b34801561038957600080fd5b506103a4600480360381019061039f919061349f565b610c87565b6040516103b19190613447565b60405180910390f35b3480156103c657600080fd5b506103e160048036038101906103dc91906137c9565b610d27565b6040516103ee9190613447565b60405180910390f35b34801561040357600080fd5b5061041e6004803603810190610419919061349f565b610ddd565b60405161042b919061350d565b60405180910390f35b34801561044057600080fd5b5061045b60048036038101906104569190613812565b610e64565b604051610468919061384e565b60405180910390f35b34801561047d57600080fd5b50610486610f1c565b604051610493919061388a565b60405180910390f35b3480156104a857600080fd5b506104b1610f42565b6040516104be9190613393565b60405180910390f35b3480156104d357600080fd5b506104dc610f9a565b6040516104e99190613447565b60405180910390f35b3480156104fe57600080fd5b50610519600480360381019061051491906135f9565b61102c565b6040516105269190613393565b60405180910390f35b34801561053b57600080fd5b50610556600480360381019061055191906138d1565b6110e0565b005b34801561056457600080fd5b5061057f600480360381019061057a91906139b2565b6110f6565b005b34801561058d57600080fd5b506105a860048036038101906105a391906135f9565b611158565b6040516105b5919061350d565b60405180910390f35b3480156105ca57600080fd5b506105e560048036038101906105e09190613a35565b6111a3565b005b3480156105f357600080fd5b5061060e6004803603810190610609919061349f565b61127e565b60405161061b9190613447565b60405180910390f35b34801561063057600080fd5b5061064b60048036038101906106469190613ab6565b611391565b6040516106589190613393565b60405180910390f35b61067b600480360381019061067691906135f9565b611425565b005b34801561068957600080fd5b506106926118e2565b60405161069f9190613c02565b60405180910390f35b3480156106b457600080fd5b506106cf60048036038101906106ca91906135f9565b611ac0565b6040516106dc919061384e565b60405180910390f35b60007f80ac58cd000000000000000000000000000000000000000000000000000000007bffffffffffffffffffffffffffffffffffffffffffffffffffffffff1916827bffffffffffffffffffffffffffffffffffffffffffffffffffffffff191614806107b057507f5b5e139f000000000000000000000000000000000000000000000000000000007bffffffffffffffffffffffffffffffffffffffffffffffffffffffff1916827bffffffffffffffffffffffffffffffffffffffffffffffffffffffff1916145b806107c057506107bf82611c02565b5b9050919050565b6060600080546107d690613c53565b80601f016020809104026020016040519081016040528092919081815260200182805461080290613c53565b801561084f5780601f106108245761010080835404028352916020019161084f565b820191906000526020600020905b81548152906001019060200180831161083257829003601f168201915b5050505050905090565b600061086482611c6c565b6004600083815260200190815260200160002060009054906101000a900473ffffffffffffffffffffffffffffffffffffffff169050919050565b60006108aa82610ddd565b90508073ffffffffffffffffffffffffffffffffffffffff168373ffffffffffffffffffffffffffffffffffffffff16141561091b576040517f08c379a000000000000000000000000000000000000000000000000000000000815260040161091290613cf7565b60405180910390fd5b8073ffffffffffffffffffffffffffffffffffffffff1661093a611cb7565b73ffffffffffffffffffffffffffffffffffffffff161480610969575061096881610963611cb7565b611391565b5b6109a8576040517f08c379a000000000000000000000000000000000000000000000000000000000815260040161099f90613d89565b60405180910390fd5b6109b28383611cbf565b505050565b6060600e83836040516109cb929190613dd9565b908152602001604051809103902080546109e490613c53565b80601f0160208091040260200160405190810160405280929190818152602001828054610a1090613c53565b8015610a5d5780601f10610a3257610100808354040283529160200191610a5d565b820191906000526020600020905b815481529060010190602001808311610a4057829003601f168201915b5050505050905092915050565b610a7b610a75611cb7565b82611d78565b610aba576040517f08c379a0000000000000000000000000000000000000000000000000000000008152600401610ab190613e64565b60405180910390fd5b610ac5838383611e0d565b505050565b600c818051602081018201805184825260208301602085012081835280955050505050506000915054906101000a900473ffffffffffffffffffffffffffffffffffffffff1681565b60098054610b2090613c53565b80601f0160208091040260200160405190810160405280929190818152602001828054610b4c90613c53565b8015610b995780601f10610b6e57610100808354040283529160200191610b99565b820191906000526020600020905b815481529060010190602001808311610b7c57829003601f168201915b505050505081565b610ba9610f42565b610bb257600080fd5b600047905060003373ffffffffffffffffffffffffffffffffffffffff1682604051610bdd90613eb5565b60006040518083038185875af1925050503d8060008114610c1a576040519150601f19603f3d011682016040523d82523d6000602084013e610c1f565b606091505b5050905080610c63576040517f08c379a0000000000000000000000000000000000000000000000000000000008152600401610c5a90613f16565b60405180910390fd5b5050565b610c82838383604051806020016040528060008152506110f6565b505050565b600d6020528060005260406000206000915090508054610ca690613c53565b80601f0160208091040260200160405190810160405280929190818152602001828054610cd290613c53565b8015610d1f5780601f10610cf457610100808354040283529160200191610d1f565b820191906000526020600020905b815481529060010190602001808311610d0257829003601f168201915b505050505081565b600e818051602081018201805184825260208301602085012081835280955050505050506000915090508054610d5c90613c53565b80601f0160208091040260200160405190810160405280929190818152602001828054610d8890613c53565b8015610dd55780601f10610daa57610100808354040283529160200191610dd5565b820191906000526020600020905b815481529060010190602001808311610db857829003601f168201915b505050505081565b600080610de983612107565b9050600073ffffffffffffffffffffffffffffffffffffffff168173ffffffffffffffffffffffffffffffffffffffff161415610e5b576040517f08c379a0000000000000000000000000000000000000000000000000000000008152600401610e5290613f82565b60405180910390fd5b80915050919050565b60008073ffffffffffffffffffffffffffffffffffffffff168273ffffffffffffffffffffffffffffffffffffffff161415610ed5576040517f08c379a0000000000000000000000000000000000000000000000000000000008152600401610ecc90614014565b60405180910390fd5b600360008373ffffffffffffffffffffffffffffffffffffffff1673ffffffffffffffffffffffffffffffffffffffff168152602001908152602001600020549050919050565b600860009054906101000a900473ffffffffffffffffffffffffffffffffffffffff1681565b6000600860009054906101000a900473ffffffffffffffffffffffffffffffffffffffff1673ffffffffffffffffffffffffffffffffffffffff163373ffffffffffffffffffffffffffffffffffffffff1614905090565b606060018054610fa990613c53565b80601f0160208091040260200160405190810160405280929190818152602001828054610fd590613c53565b80156110225780601f10610ff757610100808354040283529160200191611022565b820191906000526020600020905b81548152906001019060200180831161100557829003601f168201915b5050505050905090565b6000600361107d84848080601f016020809104026020016040519081016040528093929190818152602001838380828437600081840152601f19601f82011690508083019250505050505050612144565b101580156110d85750600a6110d584848080601f016020809104026020016040519081016040528093929190818152602001838380828437600081840152601f19601f82011690508083019250505050505050612144565b11155b905092915050565b6110f26110eb611cb7565b83836122f9565b5050565b611107611101611cb7565b83611d78565b611146576040517f08c379a000000000000000000000000000000000000000000000000000000000815260040161113d90613e64565b60405180910390fd5b61115284848484612466565b50505050565b6000600c838360405161116c929190613dd9565b908152602001604051809103902060009054906101000a900473ffffffffffffffffffffffffffffffffffffffff16905092915050565b3373ffffffffffffffffffffffffffffffffffffffff16600c85856040516111cc929190613dd9565b908152602001604051809103902060009054906101000a900473ffffffffffffffffffffffffffffffffffffffff1673ffffffffffffffffffffffffffffffffffffffff1614611248576040517f82b4290000000000000000000000000000000000000000000000000000000000815260040160405180910390fd5b8181600e868660405161125c929190613dd9565b908152602001604051809103902091906112779291906131b6565b5050505050565b606061128982611c6c565b60006006600084815260200190815260200160002080546112a990613c53565b80601f01602080910402602001604051908101604052809291908181526020018280546112d590613c53565b80156113225780601f106112f757610100808354040283529160200191611322565b820191906000526020600020905b81548152906001019060200180831161130557829003601f168201915b5050505050905060006113336124c2565b905060008151141561134957819250505061138c565b60008251111561137e578082604051602001611366929190614065565b6040516020818303038152906040529250505061138c565b611387846124d9565b925050505b919050565b6000600560008473ffffffffffffffffffffffffffffffffffffffff1673ffffffffffffffffffffffffffffffffffffffff16815260200190815260200160002060008373ffffffffffffffffffffffffffffffffffffffff1673ffffffffffffffffffffffffffffffffffffffff16815260200190815260200160002060009054906101000a900460ff16905092915050565b600073ffffffffffffffffffffffffffffffffffffffff16600c838360405161144f929190613dd9565b908152602001604051809103902060009054906101000a900473ffffffffffffffffffffffffffffffffffffffff1673ffffffffffffffffffffffffffffffffffffffff16146114cb576040517f3a81d6fc00000000000000000000000000000000000000000000000000000000815260040160405180910390fd5b6114d5828261102c565b6115185781816040517f7f19f48d00000000000000000000000000000000000000000000000000000000815260040161150f9291906140b6565b60405180910390fd5b60006115248383611ac0565b905080341015611569576040517f08c379a000000000000000000000000000000000000000000000000000000000815260040161156090614126565b60405180910390fd5b60008383600960405160200161158193929190614226565b60405160208183030381529060405290506000600a82600b6040516020016115ab93929190614257565b604051602081830303815290604052905060006115c86007612541565b9050600061161987878080601f016020809104026020016040519081016040528093929190818152602001838380828437600081840152601f19601f82011690508083019250505050505050612144565b905060006116268261254f565b905061171a604051806060016040528060318152602001614c696031913989898080601f016020809104026020016040519081016040528093929190818152602001838380828437600081840152601f19601f820116905080830192505050505050506009805461169690613c53565b80601f01602080910402602001604051908101604052809291908181526020018280546116c290613c53565b801561170f5780601f106116e45761010080835404028352916020019161170f565b820191906000526020600020905b8154815290600101906020018083116116f257829003601f168201915b505050505086612627565b600061175086611729876126c9565b8460405160200161173c93929190614404565b6040516020818303038152906040526126c9565b905060008160405160200161176591906144ad565b6040516020818303038152906040529050611797604051806060016040528060398152602001614c306039913961282d565b6117d66040518060400160405280600e81526020017f46696e616c20746f6b656e55524900000000000000000000000000000000000081525082611b66565b6117f7604051806060016040528060398152602001614c9a6039913961282d565b61180133866128c6565b61180b85826128e4565b33600c8b8b60405161181e929190613dd9565b908152602001604051809103902060006101000a81548173ffffffffffffffffffffffffffffffffffffffff021916908373ffffffffffffffffffffffffffffffffffffffff1602179055506118a96040518060400160405280601b81526020017f2573206861732072656769737465726564206120646f6d61696e21000000000081525033612958565b8989600d600088815260200190815260200160002091906118cb9291906131b6565b506118d660076129f4565b50505050505050505050565b60606119226040518060400160405280601f81526020017f47657474696e6720616c6c206e616d65732066726f6d20636f6e74726163740081525061282d565b600061192e6007612541565b67ffffffffffffffff8111156119475761194661369e565b5b60405190808252806020026020018201604052801561197a57816020015b60608152602001906001900390816119655790505b50905060005b61198a6007612541565b811015611ab857600d600082815260200190815260200160002080546119af90613c53565b80601f01602080910402602001604051908101604052809291908181526020018280546119db90613c53565b8015611a285780601f106119fd57610100808354040283529160200191611a28565b820191906000526020600020905b815481529060010190602001808311611a0b57829003601f168201915b5050505050828281518110611a4057611a3f6144cf565b5b6020026020010181905250611aa56040518060400160405280601781526020017f4e616d6520666f7220746f6b656e20256420697320257300000000000000000081525082848481518110611a9857611a976144cf565b5b6020026020010151612a0a565b8080611ab09061452d565b915050611980565b508091505090565b600080611b1084848080601f016020809104026020016040519081016040528093929190818152602001838380828437600081840152601f19601f82011690508083019250505050505050612144565b905060008111611b1f57600080fd5b6003811415611b39576706f05b59d3b20000915050611b60565b6004811415611b5357670429d069189e0000915050611b60565b67016345785d8a00009150505b92915050565b611bfe8282604051602401611b7c929190614576565b6040516020818303038152906040527f4b5c4277000000000000000000000000000000000000000000000000000000007bffffffffffffffffffffffffffffffffffffffffffffffffffffffff19166020820180517bffffffffffffffffffffffffffffffffffffffffffffffffffffffff8381831617835250505050612aa9565b5050565b60007f01ffc9a7000000000000000000000000000000000000000000000000000000007bffffffffffffffffffffffffffffffffffffffffffffffffffffffff1916827bffffffffffffffffffffffffffffffffffffffffffffffffffffffff1916149050919050565b611c7581612ad2565b611cb4576040517f08c379a0000000000000000000000000000000000000000000000000000000008152600401611cab90613f82565b60405180910390fd5b50565b600033905090565b816004600083815260200190815260200160002060006101000a81548173ffffffffffffffffffffffffffffffffffffffff021916908373ffffffffffffffffffffffffffffffffffffffff160217905550808273ffffffffffffffffffffffffffffffffffffffff16611d3283610ddd565b73ffffffffffffffffffffffffffffffffffffffff167f8c5be1e5ebec7d5bd14f71427d1e84f3dd0314c0f7b2291e5b200ac8c7c3b92560405160405180910390a45050565b600080611d8483610ddd565b90508073ffffffffffffffffffffffffffffffffffffffff168473ffffffffffffffffffffffffffffffffffffffff161480611dc65750611dc58185611391565b5b80611e0457508373ffffffffffffffffffffffffffffffffffffffff16611dec84610859565b73ffffffffffffffffffffffffffffffffffffffff16145b91505092915050565b8273ffffffffffffffffffffffffffffffffffffffff16611e2d82610ddd565b73ffffffffffffffffffffffffffffffffffffffff1614611e83576040517f08c379a0000000000000000000000000000000000000000000000000000000008152600401611e7a9061461f565b60405180910390fd5b600073ffffffffffffffffffffffffffffffffffffffff168273ffffffffffffffffffffffffffffffffffffffff161415611ef3576040517f08c379a0000000000000000000000000000000000000000000000000000000008152600401611eea906146b1565b60405180910390fd5b611f008383836001612b13565b8273ffffffffffffffffffffffffffffffffffffffff16611f2082610ddd565b73ffffffffffffffffffffffffffffffffffffffff1614611f76576040517f08c379a0000000000000000000000000000000000000000000000000000000008152600401611f6d9061461f565b60405180910390fd5b6004600082815260200190815260200160002060006101000a81549073ffffffffffffffffffffffffffffffffffffffff02191690556001600360008573ffffffffffffffffffffffffffffffffffffffff1673ffffffffffffffffffffffffffffffffffffffff168152602001908152602001600020600082825403925050819055506001600360008473ffffffffffffffffffffffffffffffffffffffff1673ffffffffffffffffffffffffffffffffffffffff16815260200190815260200160002060008282540192505081905550816002600083815260200190815260200160002060006101000a81548173ffffffffffffffffffffffffffffffffffffffff021916908373ffffffffffffffffffffffffffffffffffffffff160217905550808273ffffffffffffffffffffffffffffffffffffffff168473ffffffffffffffffffffffffffffffffffffffff167fddf252ad1be2c89b69c2b068fc378daa952ba7f163c4a11628f55a4df523b3ef60405160405180910390a46121028383836001612c39565b505050565b60006002600083815260200190815260200160002060009054906101000a900473ffffffffffffffffffffffffffffffffffffffff169050919050565b60008060008084519050600092505b808210156122ee5760008583815181106121705761216f6144cf565b5b602001015160f81c60f81b9050608060f81b817effffffffffffffffffffffffffffffffffffffffffffffffffffffffffffff191610156121bf576001836121b891906146d1565b92506122da565b60e060f81b817effffffffffffffffffffffffffffffffffffffffffffffffffffffffffffff19161015612201576002836121fa91906146d1565b92506122d9565b60f060f81b817effffffffffffffffffffffffffffffffffffffffffffffffffffffffffffff191610156122435760038361223c91906146d1565b92506122d8565b60f8801b817effffffffffffffffffffffffffffffffffffffffffffffffffffffffffffff191610156122845760048361227d91906146d1565b92506122d7565b60fc60f81b817effffffffffffffffffffffffffffffffffffffffffffffffffffffffffffff191610156122c6576005836122bf91906146d1565b92506122d6565b6006836122d391906146d1565b92505b5b5b5b5b5082806122e69061452d565b935050612153565b829350505050919050565b8173ffffffffffffffffffffffffffffffffffffffff168373ffffffffffffffffffffffffffffffffffffffff161415612368576040517f08c379a000000000000000000000000000000000000000000000000000000000815260040161235f90614773565b60405180910390fd5b80600560008573ffffffffffffffffffffffffffffffffffffffff1673ffffffffffffffffffffffffffffffffffffffff16815260200190815260200160002060008473ffffffffffffffffffffffffffffffffffffffff1673ffffffffffffffffffffffffffffffffffffffff16815260200190815260200160002060006101000a81548160ff0219169083151502179055508173ffffffffffffffffffffffffffffffffffffffff168373ffffffffffffffffffffffffffffffffffffffff167f17307eab39ab6107e8899845ad3d59bd9653f200f220920489ca2b5937696c31836040516124599190613393565b60405180910390a3505050565b612471848484611e0d565b61247d84848484612c3f565b6124bc576040517f08c379a00000000000000000000000000000000000000000000000000000000081526004016124b390614805565b60405180910390fd5b50505050565b606060405180602001604052806000815250905090565b60606124e482611c6c565b60006124ee6124c2565b9050600081511161250e5760405180602001604052806000815250612539565b806125188461254f565b604051602001612529929190614065565b6040516020818303038152906040525b915050919050565b600081600001549050919050565b60606000600161255e84612dc7565b01905060008167ffffffffffffffff81111561257d5761257c61369e565b5b6040519080825280601f01601f1916602001820160405280156125af5781602001600182028036833780820191505090505b509050600082602001820190505b60011561261c578080600190039150507f3031323334353637383961626364656600000000000000000000000000000000600a86061a8153600a858161260657612605614825565b5b04945060008514156126175761261c565b6125bd565b819350505050919050565b6126c3848484846040516024016126419493929190614854565b6040516020818303038152906040527f8eafb02b000000000000000000000000000000000000000000000000000000007bffffffffffffffffffffffffffffffffffffffffffffffffffffffff19166020820180517bffffffffffffffffffffffffffffffffffffffffffffffffffffffff8381831617835250505050612aa9565b50505050565b60606000825114156126ec57604051806020016040528060008152509050612828565b6000604051806060016040528060408152602001614cd3604091399050600060036002855161271b91906146d1565b61272591906148ae565b600461273191906148df565b67ffffffffffffffff81111561274a5761274961369e565b5b6040519080825280601f01601f19166020018201604052801561277c5781602001600182028036833780820191505090505b509050600182016020820185865187015b808210156127e8576003820191508151603f8160121c168501518453600184019350603f81600c1c168501518453600184019350603f8160061c168501518453600184019350603f811685015184536001840193505061278d565b505060038651066001811461280457600281146128175761281f565b603d6001830353603d600283035361281f565b603d60018303535b50505080925050505b919050565b6128c3816040516024016128419190613447565b6040516020818303038152906040527f41304fac000000000000000000000000000000000000000000000000000000007bffffffffffffffffffffffffffffffffffffffffffffffffffffffff19166020820180517bffffffffffffffffffffffffffffffffffffffffffffffffffffffff8381831617835250505050612aa9565b50565b6128e0828260405180602001604052806000815250612f1a565b5050565b6128ed82612ad2565b61292c576040517f08c379a0000000000000000000000000000000000000000000000000000000008152600401612923906149ab565b60405180910390fd5b8060066000848152602001908152602001600020908051906020019061295392919061323c565b505050565b6129f0828260405160240161296e9291906149cb565b6040516020818303038152906040527f319af333000000000000000000000000000000000000000000000000000000007bffffffffffffffffffffffffffffffffffffffffffffffffffffffff19166020820180517bffffffffffffffffffffffffffffffffffffffffffffffffffffffff8381831617835250505050612aa9565b5050565b6001816000016000828254019250508190555050565b612aa4838383604051602401612a22939291906149fb565b6040516020818303038152906040527f5970e089000000000000000000000000000000000000000000000000000000007bffffffffffffffffffffffffffffffffffffffffffffffffffffffff19166020820180517bffffffffffffffffffffffffffffffffffffffffffffffffffffffff8381831617835250505050612aa9565b505050565b60008151905060006a636f6e736f6c652e6c6f679050602083016000808483855afa5050505050565b60008073ffffffffffffffffffffffffffffffffffffffff16612af483612107565b73ffffffffffffffffffffffffffffffffffffffff1614159050919050565b6001811115612c3357600073ffffffffffffffffffffffffffffffffffffffff168473ffffffffffffffffffffffffffffffffffffffff1614612ba75780600360008673ffffffffffffffffffffffffffffffffffffffff1673ffffffffffffffffffffffffffffffffffffffff1681526020019081526020016000206000828254612b9f9190614a40565b925050819055505b600073ffffffffffffffffffffffffffffffffffffffff168373ffffffffffffffffffffffffffffffffffffffff1614612c325780600360008573ffffffffffffffffffffffffffffffffffffffff1673ffffffffffffffffffffffffffffffffffffffff1681526020019081526020016000206000828254612c2a91906146d1565b925050819055505b5b50505050565b50505050565b6000612c608473ffffffffffffffffffffffffffffffffffffffff16612f75565b15612dba578373ffffffffffffffffffffffffffffffffffffffff1663150b7a02612c89611cb7565b8786866040518563ffffffff1660e01b8152600401612cab9493929190614ac9565b6020604051808303816000875af1925050508015612ce757506040513d601f19601f82011682018060405250810190612ce49190614b2a565b60015b612d6a573d8060008114612d17576040519150601f19603f3d011682016040523d82523d6000602084013e612d1c565b606091505b50600081511415612d62576040517f08c379a0000000000000000000000000000000000000000000000000000000008152600401612d5990614805565b60405180910390fd5b805181602001fd5b63150b7a0260e01b7bffffffffffffffffffffffffffffffffffffffffffffffffffffffff1916817bffffffffffffffffffffffffffffffffffffffffffffffffffffffff191614915050612dbf565b600190505b949350505050565b600080600090507a184f03e93ff9f4daa797ed6e38ed64bf6a1f0100000000000000008310612e25577a184f03e93ff9f4daa797ed6e38ed64bf6a1f0100000000000000008381612e1b57612e1a614825565b5b0492506040810190505b6d04ee2d6d415b85acef81000000008310612e62576d04ee2d6d415b85acef81000000008381612e5857612e57614825565b5b0492506020810190505b662386f26fc100008310612e9157662386f26fc100008381612e8757612e86614825565b5b0492506010810190505b6305f5e1008310612eba576305f5e1008381612eb057612eaf614825565b5b0492506008810190505b6127108310612edf576127108381612ed557612ed4614825565b5b0492506004810190505b60648310612f025760648381612ef857612ef7614825565b5b0492506002810190505b600a8310612f11576001810190505b80915050919050565b612f248383612f98565b612f316000848484612c3f565b612f70576040517f08c379a0000000000000000000000000000000000000000000000000000000008152600401612f6790614805565b60405180910390fd5b505050565b6000808273ffffffffffffffffffffffffffffffffffffffff163b119050919050565b600073ffffffffffffffffffffffffffffffffffffffff168273ffffffffffffffffffffffffffffffffffffffff161415613008576040517f08c379a0000000000000000000000000000000000000000000000000000000008152600401612fff90614ba3565b60405180910390fd5b61301181612ad2565b15613051576040517f08c379a000000000000000000000000000000000000000000000000000000000815260040161304890614c0f565b60405180910390fd5b61305f600083836001612b13565b61306881612ad2565b156130a8576040517f08c379a000000000000000000000000000000000000000000000000000000000815260040161309f90614c0f565b60405180910390fd5b6001600360008473ffffffffffffffffffffffffffffffffffffffff1673ffffffffffffffffffffffffffffffffffffffff16815260200190815260200160002060008282540192505081905550816002600083815260200190815260200160002060006101000a81548173ffffffffffffffffffffffffffffffffffffffff021916908373ffffffffffffffffffffffffffffffffffffffff160217905550808273ffffffffffffffffffffffffffffffffffffffff16600073ffffffffffffffffffffffffffffffffffffffff167fddf252ad1be2c89b69c2b068fc378daa952ba7f163c4a11628f55a4df523b3ef60405160405180910390a46131b2600083836001612c39565b5050565b8280546131c290613c53565b90600052602060002090601f0160209004810192826131e4576000855561322b565b82601f106131fd57803560ff191683800117855561322b565b8280016001018555821561322b579182015b8281111561322a57823582559160200191906001019061320f565b5b50905061323891906132c2565b5090565b82805461324890613c53565b90600052602060002090601f01602090048101928261326a57600085556132b1565b82601f1061328357805160ff19168380011785556132b1565b828001600101855582156132b1579182015b828111156132b0578251825591602001919060010190613295565b5b5090506132be91906132c2565b5090565b5b808211156132db5760008160009055506001016132c3565b5090565b6000604051905090565b600080fd5b600080fd5b60007fffffffff0000000000000000000000000000000000000000000000000000000082169050919050565b613328816132f3565b811461333357600080fd5b50565b6000813590506133458161331f565b92915050565b600060208284031215613361576133606132e9565b5b600061336f84828501613336565b91505092915050565b60008115159050919050565b61338d81613378565b82525050565b60006020820190506133a86000830184613384565b92915050565b600081519050919050565b600082825260208201905092915050565b60005b838110156133e85780820151818401526020810190506133cd565b838111156133f7576000848401525b50505050565b6000601f19601f8301169050919050565b6000613419826133ae565b61342381856133b9565b93506134338185602086016133ca565b61343c816133fd565b840191505092915050565b60006020820190508181036000830152613461818461340e565b905092915050565b6000819050919050565b61347c81613469565b811461348757600080fd5b50565b60008135905061349981613473565b92915050565b6000602082840312156134b5576134b46132e9565b5b60006134c38482850161348a565b91505092915050565b600073ffffffffffffffffffffffffffffffffffffffff82169050919050565b60006134f7826134cc565b9050919050565b613507816134ec565b82525050565b600060208201905061352260008301846134fe565b92915050565b613531816134ec565b811461353c57600080fd5b50565b60008135905061354e81613528565b92915050565b6000806040838503121561356b5761356a6132e9565b5b60006135798582860161353f565b925050602061358a8582860161348a565b9150509250929050565b600080fd5b600080fd5b600080fd5b60008083601f8401126135b9576135b8613594565b5b8235905067ffffffffffffffff8111156135d6576135d5613599565b5b6020830191508360018202830111156135f2576135f161359e565b5b9250929050565b600080602083850312156136105761360f6132e9565b5b600083013567ffffffffffffffff81111561362e5761362d6132ee565b5b61363a858286016135a3565b92509250509250929050565b60008060006060848603121561365f5761365e6132e9565b5b600061366d8682870161353f565b935050602061367e8682870161353f565b925050604061368f8682870161348a565b9150509250925092565b600080fd5b7f4e487b7100000000000000000000000000000000000000000000000000000000600052604160045260246000fd5b6136d6826133fd565b810181811067ffffffffffffffff821117156136f5576136f461369e565b5b80604052505050565b60006137086132df565b905061371482826136cd565b919050565b600067ffffffffffffffff8211156137345761373361369e565b5b61373d826133fd565b9050602081019050919050565b82818337600083830152505050565b600061376c61376784613719565b6136fe565b90508281526020810184848401111561378857613787613699565b5b61379384828561374a565b509392505050565b600082601f8301126137b0576137af613594565b5b81356137c0848260208601613759565b91505092915050565b6000602082840312156137df576137de6132e9565b5b600082013567ffffffffffffffff8111156137fd576137fc6132ee565b5b6138098482850161379b565b91505092915050565b600060208284031215613828576138276132e9565b5b60006138368482850161353f565b91505092915050565b61384881613469565b82525050565b6000602082019050613863600083018461383f565b92915050565b6000613874826134cc565b9050919050565b61388481613869565b82525050565b600060208201905061389f600083018461387b565b92915050565b6138ae81613378565b81146138b957600080fd5b50565b6000813590506138cb816138a5565b92915050565b600080604083850312156138e8576138e76132e9565b5b60006138f68582860161353f565b9250506020613907858286016138bc565b9150509250929050565b600067ffffffffffffffff82111561392c5761392b61369e565b5b613935826133fd565b9050602081019050919050565b600061395561395084613911565b6136fe565b90508281526020810184848401111561397157613970613699565b5b61397c84828561374a565b509392505050565b600082601f83011261399957613998613594565b5b81356139a9848260208601613942565b91505092915050565b600080600080608085870312156139cc576139cb6132e9565b5b60006139da8782880161353f565b94505060206139eb8782880161353f565b93505060406139fc8782880161348a565b925050606085013567ffffffffffffffff811115613a1d57613a1c6132ee565b5b613a2987828801613984565b91505092959194509250565b60008060008060408587031215613a4f57613a4e6132e9565b5b600085013567ffffffffffffffff811115613a6d57613a6c6132ee565b5b613a79878288016135a3565b9450945050602085013567ffffffffffffffff811115613a9c57613a9b6132ee565b5b613aa8878288016135a3565b925092505092959194509250565b60008060408385031215613acd57613acc6132e9565b5b6000613adb8582860161353f565b9250506020613aec8582860161353f565b9150509250929050565b600081519050919050565b600082825260208201905092915050565b6000819050602082019050919050565b600082825260208201905092915050565b6000613b3e826133ae565b613b488185613b22565b9350613b588185602086016133ca565b613b61816133fd565b840191505092915050565b6000613b788383613b33565b905092915050565b6000602082019050919050565b6000613b9882613af6565b613ba28185613b01565b935083602082028501613bb485613b12565b8060005b85811015613bf05784840389528151613bd18582613b6c565b9450613bdc83613b80565b925060208a01995050600181019050613bb8565b50829750879550505050505092915050565b60006020820190508181036000830152613c1c8184613b8d565b905092915050565b7f4e487b7100000000000000000000000000000000000000000000000000000000600052602260045260246000fd5b60006002820490506001821680613c6b57607f821691505b60208210811415613c7f57613c7e613c24565b5b50919050565b7f4552433732313a20617070726f76616c20746f2063757272656e74206f776e6560008201527f7200000000000000000000000000000000000000000000000000000000000000602082015250565b6000613ce16021836133b9565b9150613cec82613c85565b604082019050919050565b60006020820190508181036000830152613d1081613cd4565b9050919050565b7f4552433732313a20617070726f76652063616c6c6572206973206e6f7420746f60008201527f6b656e206f776e6572206f7220617070726f76656420666f7220616c6c000000602082015250565b6000613d73603d836133b9565b9150613d7e82613d17565b604082019050919050565b60006020820190508181036000830152613da281613d66565b9050919050565b600081905092915050565b6000613dc08385613da9565b9350613dcd83858461374a565b82840190509392505050565b6000613de6828486613db4565b91508190509392505050565b7f4552433732313a2063616c6c6572206973206e6f7420746f6b656e206f776e6560008201527f72206f7220617070726f76656400000000000000000000000000000000000000602082015250565b6000613e4e602d836133b9565b9150613e5982613df2565b604082019050919050565b60006020820190508181036000830152613e7d81613e41565b9050919050565b600081905092915050565b50565b6000613e9f600083613e84565b9150613eaa82613e8f565b600082019050919050565b6000613ec082613e92565b9150819050919050565b7f4661696c656420746f207769746864726177204d617469630000000000000000600082015250565b6000613f006018836133b9565b9150613f0b82613eca565b602082019050919050565b60006020820190508181036000830152613f2f81613ef3565b9050919050565b7f4552433732313a20696e76616c696420746f6b656e2049440000000000000000600082015250565b6000613f6c6018836133b9565b9150613f7782613f36565b602082019050919050565b60006020820190508181036000830152613f9b81613f5f565b9050919050565b7f4552433732313a2061646472657373207a65726f206973206e6f74206120766160008201527f6c6964206f776e65720000000000000000000000000000000000000000000000602082015250565b6000613ffe6029836133b9565b915061400982613fa2565b604082019050919050565b6000602082019050818103600083015261402d81613ff1565b9050919050565b600061403f826133ae565b6140498185613da9565b93506140598185602086016133ca565b80840191505092915050565b60006140718285614034565b915061407d8284614034565b91508190509392505050565b600061409583856133b9565b93506140a283858461374a565b6140ab836133fd565b840190509392505050565b600060208201905081810360008301526140d1818486614089565b90509392505050565b7f4e6f7420656e6f756768204d6174696320706169640000000000000000000000600082015250565b60006141106015836133b9565b915061411b826140da565b602082019050919050565b6000602082019050818103600083015261413f81614103565b9050919050565b7f2e00000000000000000000000000000000000000000000000000000000000000600082015250565b600061417c600183613da9565b915061418782614146565b600182019050919050565b60008190508160005260206000209050919050565b600081546141b481613c53565b6141be8186613da9565b945060018216600081146141d957600181146141ea5761421d565b60ff1983168652818601935061421d565b6141f385614192565b60005b83811015614215578154818901526001820191506020810190506141f6565b838801955050505b50505092915050565b6000614233828587613db4565b915061423e8261416f565b915061424a82846141a7565b9150819050949350505050565b600061426382866141a7565b915061426f8285614034565b915061427b82846141a7565b9150819050949350505050565b7f7b226e616d65223a202200000000000000000000000000000000000000000000600082015250565b60006142be600a83613da9565b91506142c982614288565b600a82019050919050565b7f222c20226465736372697074696f6e223a20224120646f6d61696e206f6e207460008201527f6865206565206e616d652073657276696365222c2022696d616765223a20226460208201527f6174613a696d6167652f7376672b786d6c3b6261736536342c00000000000000604082015250565b6000614356605983613da9565b9150614361826142d4565b605982019050919050565b7f222c20226c656e677468223a2022000000000000000000000000000000000000600082015250565b60006143a2600e83613da9565b91506143ad8261436c565b600e82019050919050565b7f227d000000000000000000000000000000000000000000000000000000000000600082015250565b60006143ee600283613da9565b91506143f9826143b8565b600282019050919050565b600061440f826142b1565b915061441b8286614034565b915061442682614349565b91506144328285614034565b915061443d82614395565b91506144498284614034565b9150614454826143e1565b9150819050949350505050565b7f646174613a6170706c69636174696f6e2f6a736f6e3b6261736536342c000000600082015250565b6000614497601d83613da9565b91506144a282614461565b601d82019050919050565b60006144b88261448a565b91506144c48284614034565b915081905092915050565b7f4e487b7100000000000000000000000000000000000000000000000000000000600052603260045260246000fd5b7f4e487b7100000000000000000000000000000000000000000000000000000000600052601160045260246000fd5b600061453882613469565b91507fffffffffffffffffffffffffffffffffffffffffffffffffffffffffffffffff82141561456b5761456a6144fe565b5b600182019050919050565b60006040820190508181036000830152614590818561340e565b905081810360208301526145a4818461340e565b90509392505050565b7f4552433732313a207472616e736665722066726f6d20696e636f72726563742060008201527f6f776e6572000000000000000000000000000000000000000000000000000000602082015250565b60006146096025836133b9565b9150614614826145ad565b604082019050919050565b60006020820190508181036000830152614638816145fc565b9050919050565b7f4552433732313a207472616e7366657220746f20746865207a65726f2061646460008201527f7265737300000000000000000000000000000000000000000000000000000000602082015250565b600061469b6024836133b9565b91506146a68261463f565b604082019050919050565b600060208201905081810360008301526146ca8161468e565b9050919050565b60006146dc82613469565b91506146e783613469565b9250827fffffffffffffffffffffffffffffffffffffffffffffffffffffffffffffffff0382111561471c5761471b6144fe565b5b828201905092915050565b7f4552433732313a20617070726f766520746f2063616c6c657200000000000000600082015250565b600061475d6019836133b9565b915061476882614727565b602082019050919050565b6000602082019050818103600083015261478c81614750565b9050919050565b7f4552433732313a207472616e7366657220746f206e6f6e20455243373231526560008201527f63656976657220696d706c656d656e7465720000000000000000000000000000602082015250565b60006147ef6032836133b9565b91506147fa82614793565b604082019050919050565b6000602082019050818103600083015261481e816147e2565b9050919050565b7f4e487b7100000000000000000000000000000000000000000000000000000000600052601260045260246000fd5b6000608082019050818103600083015261486e818761340e565b90508181036020830152614882818661340e565b90508181036040830152614896818561340e565b90506148a5606083018461383f565b95945050505050565b60006148b982613469565b91506148c483613469565b9250826148d4576148d3614825565b5b828204905092915050565b60006148ea82613469565b91506148f583613469565b9250817fffffffffffffffffffffffffffffffffffffffffffffffffffffffffffffffff048311821515161561492e5761492d6144fe565b5b828202905092915050565b7f45524337323155524953746f726167653a2055524920736574206f66206e6f6e60008201527f6578697374656e7420746f6b656e000000000000000000000000000000000000602082015250565b6000614995602e836133b9565b91506149a082614939565b604082019050919050565b600060208201905081810360008301526149c481614988565b9050919050565b600060408201905081810360008301526149e5818561340e565b90506149f460208301846134fe565b9392505050565b60006060820190508181036000830152614a15818661340e565b9050614a24602083018561383f565b8181036040830152614a36818461340e565b9050949350505050565b6000614a4b82613469565b9150614a5683613469565b925082821015614a6957614a686144fe565b5b828203905092915050565b600081519050919050565b600082825260208201905092915050565b6000614a9b82614a74565b614aa58185614a7f565b9350614ab58185602086016133ca565b614abe816133fd565b840191505092915050565b6000608082019050614ade60008301876134fe565b614aeb60208301866134fe565b614af8604083018561383f565b8181036060830152614b0a8184614a90565b905095945050505050565b600081519050614b248161331f565b92915050565b600060208284031215614b4057614b3f6132e9565b5b6000614b4e84828501614b15565b91505092915050565b7f4552433732313a206d696e7420746f20746865207a65726f2061646472657373600082015250565b6000614b8d6020836133b9565b9150614b9882614b57565b602082019050919050565b60006020820190508181036000830152614bbc81614b80565b9050919050565b7f4552433732313a20746f6b656e20616c7265616479206d696e74656400000000600082015250565b6000614bf9601c836133b9565b9150614c0482614bc3565b602082019050919050565b60006020820190508181036000830152614c2881614bec565b905091905056fe0a2d2d2d2d2d2d2d2d2d2d2d2d2d2d2d2d2d2d2d2d2d2d2d2d2d2d2d2d2d2d2d2d2d2d2d2d2d2d2d2d2d2d2d2d2d2d2d2d2d2d2d2d2d2d2d2d5265676973746572696e672025732e2573206f6e2074686520636f6e7472616374207769746820746f6b656e49442025642d2d2d2d2d2d2d2d2d2d2d2d2d2d2d2d2d2d2d2d2d2d2d2d2d2d2d2d2d2d2d2d2d2d2d2d2d2d2d2d2d2d2d2d2d2d2d2d2d2d2d2d2d2d2d2d0a4142434445464748494a4b4c4d4e4f505152535455565758595a6162636465666768696a6b6c6d6e6f707172737475767778797a303132333435363738392b2fa26469706673582212206a237ec597a213dc46801b18341321c2dd1af0354ee70f8a6efa110d3b65a56c64736f6c634300080a00333c73766720786d6c6e733d22687474703a2f2f7777772e77332e6f72672f323030302f737667222077696474683d2232373022206865696768743d22323730222066696c6c3d226e6f6e65223e3c706174682066696c6c3d2275726c282342292220643d224d302030683237307632373048307a222f3e3c646566733e3c66696c7465722069643d22412220636f6c6f722d696e746572706f6c6174696f6e2d66696c746572733d2273524742222066696c746572556e6974733d227573657253706163654f6e55736522206865696768743d22323730222077696474683d22323730223e3c666544726f70536861646f772064783d2230222064793d22312220737464446576696174696f6e3d22322220666c6f6f642d6f7061636974793d222e323235222077696474683d223230302522206865696768743d2232303025222f3e3c2f66696c7465723e3c2f646566733e3c7061746820643d224d37322e3836332034322e393439632d2e3636382d2e3338372d312e3432362d2e35392d322e3139372d2e3539732d312e3532392e3230342d322e3139372e35396c2d31302e30383120362e3033322d362e383520332e3933342d31302e30383120362e303332632d2e3636382e3338372d312e3432362e35392d322e3139372e3539732d312e3532392d2e3230342d322e3139372d2e35396c2d382e3031332d342e37323161342e353220342e35322030203020312d312e3538392d312e363136632d2e3338342d2e3636352d2e3539342d312e3431382d2e3630382d322e313837762d392e3331632d2e3031332d2e3737352e3138352d312e3533382e3537322d322e32303861342e323520342e323520302030203120312e3632352d312e3539356c372e3838342d342e3539632e3636382d2e33383720312e3432362d2e353920322e3139372d2e353973312e3532392e32303420322e3139372e35396c372e38383420342e353961342e353220342e353220302030203120312e35383920312e363136632e3338342e3636352e35393420312e3431382e36303820322e31383776362e3033326c362e38352d342e303635762d362e303332632e3031332d2e3737352d2e3138352d312e3533382d2e3537322d322e32303861342e323520342e32352030203020302d312e3632352d312e3539354c34312e3435362032342e3539632d2e3636382d2e3338372d312e3432362d2e35392d322e3139372d2e3539732d312e3532392e3230342d322e3139372e35396c2d31342e38363420382e36353561342e323520342e32352030203020302d312e36323520312e353935632d2e3338372e36372d2e35383520312e3433342d2e35373220322e3230387631372e343431632d2e3031332e3737352e31383520312e3533382e35373220322e32303861342e323520342e323520302030203020312e36323520312e3539356c31342e38363420382e363535632e3636382e33383720312e3432362e353920322e3139372e353973312e3532392d2e32303420322e3139372d2e35396c31302e3038312d352e39303120362e38352d342e3036352031302e3038312d352e393031632e3636382d2e33383720312e3432362d2e353920322e3139372d2e353973312e3532392e32303420322e3139372e35396c372e38383420342e353961342e353220342e353220302030203120312e35383920312e363136632e3338342e3636352e35393420312e3431382e36303820322e31383776392e333131632e3031332e3737352d2e31383520312e3533382d2e35373220322e32303861342e323520342e32352030203020312d312e36323520312e3539356c2d372e38383420342e373231632d2e3636382e3338372d312e3432362e35392d322e3139372e3539732d312e3532392d2e3230342d322e3139372d2e35396c2d372e3838342d342e353961342e353220342e35322030203020312d312e3538392d312e363136632d2e3338352d2e3636352d2e3539342d312e3431382d2e3630382d322e313837762d362e3033326c2d362e383520342e30363576362e303332632d2e3031332e3737352e31383520312e3533382e35373220322e32303861342e323520342e323520302030203020312e36323520312e3539356c31342e38363420382e363535632e3636382e33383720312e3432362e353920322e3139372e353973312e3532392d2e32303420322e3139372d2e35396c31342e3836342d382e363535632e3635372d2e33393420312e3230342d2e393520312e3538392d312e363136732e3539342d312e3431382e3630392d322e3138375635352e353338632e3031332d2e3737352d2e3138352d312e3533382d2e3537322d322e32303861342e323520342e32352030203020302d312e3632352d312e3539356c2d31342e3939332d382e3738367a222066696c6c3d2223666666222f3e3c646566733e3c6c696e6561724772616469656e742069643d2242222078313d2230222079313d2230222078323d22323730222079323d2232373022206772616469656e74556e6974733d227573657253706163654f6e557365223e3c73746f70206f66667365743d223125222073746f702d636f6c6f723d2223323632383333222f3e3c73746f70206f66667365743d22353525222073746f702d636f6c6f723d2223666661353865222f3e3c73746f70206f66667365743d2231303025222073746f702d636f6c6f723d2223666666303564222073746f702d6f7061636974793d222e3939222f3e733c2f6c696e6561724772616469656e743e3c2f646566733e3c7465787420783d2233322e352220793d223233312220666f6e742d73697a653d223237222066696c6c3d2223666666222066696c7465723d2275726c282341292220666f6e742d66616d696c793d22506c7573204a616b617274612053616e732c44656a6156752053616e732c4e6f746f20436f6c6f7220456d6f6a692c4170706c6520436f6c6f7220456d6f6a692c73616e732d73657269662220666f6e742d7765696768743d22626f6c64223e54484953204953204d5920444f4d41494e5320434f4e54524143542e204e4943452e",
    "linkReferences": {},
    "deployedLinkReferences": {}
}